{
  "contractName": "LemonadeStand",
  "abi": [
    {
      "inputs": [],
      "stateMutability": "nonpayable",
      "type": "constructor"
    },
    {
      "anonymous": false,
      "inputs": [
        {
          "indexed": false,
          "internalType": "uint256",
          "name": "skuCount",
          "type": "uint256"
        }
      ],
      "name": "ForSale",
      "type": "event"
    },
    {
      "anonymous": false,
      "inputs": [
        {
          "indexed": false,
          "internalType": "uint256",
          "name": "sku",
          "type": "uint256"
        }
      ],
      "name": "Shipped",
      "type": "event"
    },
    {
      "anonymous": false,
      "inputs": [
        {
          "indexed": false,
          "internalType": "uint256",
          "name": "sku",
          "type": "uint256"
        }
      ],
      "name": "Sold",
      "type": "event"
    },
    {
      "inputs": [
        {
          "internalType": "string",
          "name": "_name",
          "type": "string"
        },
        {
          "internalType": "uint256",
          "name": "_price",
          "type": "uint256"
        }
      ],
      "name": "addItem",
      "outputs": [],
      "stateMutability": "nonpayable",
      "type": "function"
    },
    {
      "inputs": [
        {
          "internalType": "uint256",
          "name": "_sku",
          "type": "uint256"
        }
      ],
      "name": "buyItem",
      "outputs": [],
      "stateMutability": "payable",
      "type": "function"
    },
    {
      "inputs": [
        {
          "internalType": "uint256",
          "name": "_sku",
          "type": "uint256"
        }
      ],
      "name": "fetchItem",
      "outputs": [
        {
          "internalType": "string",
          "name": "name",
          "type": "string"
        },
        {
          "internalType": "uint256",
          "name": "sku",
          "type": "uint256"
        },
        {
          "internalType": "uint256",
          "name": "price",
          "type": "uint256"
        },
        {
          "internalType": "string",
          "name": "state",
          "type": "string"
        },
        {
          "internalType": "address",
          "name": "buyer",
          "type": "address"
        },
        {
          "internalType": "address",
          "name": "seller",
          "type": "address"
        }
      ],
      "stateMutability": "view",
      "type": "function"
    },
    {
      "inputs": [
        {
          "internalType": "uint256",
          "name": "_sku",
          "type": "uint256"
        }
      ],
      "name": "shipItem",
      "outputs": [],
      "stateMutability": "nonpayable",
      "type": "function"
    }
  ],
  "bytecode": "0x608060405234801561001057600080fd5b5033600160006101000a81548173ffffffffffffffffffffffffffffffffffffffff021916908373ffffffffffffffffffffffffffffffffffffffff16021790555060008081905550610fc0806100686000396000f3fe60806040526004361061003f5760003560e01c806362d6bbdf14610044578063ad4b9cfb1461006d578063e7fb74c7146100af578063f61c899a146100cb575b600080fd5b34801561005057600080fd5b5061006b600480360381019061006691906109c0565b6100f4565b005b34801561007957600080fd5b50610094600480360381019061008f9190610a20565b610353565b6040516100a696959493929190610b2d565b60405180910390f35b6100c960048036038101906100c49190610a20565b6105a9565b005b3480156100d757600080fd5b506100f260048036038101906100ed9190610a20565b6107f3565b005b600160009054906101000a900473ffffffffffffffffffffffffffffffffffffffff1673ffffffffffffffffffffffffffffffffffffffff163373ffffffffffffffffffffffffffffffffffffffff161461014e57600080fd5b600160005461015d9190610bcb565b6000819055507fa96ae0fc3224ebd79eebfe54bd130cc9cb94416cddd1f2386115e00b725324686000546040516101949190610bff565b60405180910390a16040518060c0016040528084848080601f016020809104026020016040519081016040528093929190818152602001838380828437600081840152601f19601f82011690508083019250505050505050815260200160005481526020018281526020016000600281111561021357610212610c1a565b5b8152602001600073ffffffffffffffffffffffffffffffffffffffff1681526020013373ffffffffffffffffffffffffffffffffffffffff16815250600260008054815260200190815260200160002060008201518160000190816102789190610e84565b50602082015181600101556040820151816002015560608201518160030160006101000a81548160ff021916908360028111156102b8576102b7610c1a565b5b021790555060808201518160030160016101000a81548173ffffffffffffffffffffffffffffffffffffffff021916908373ffffffffffffffffffffffffffffffffffffffff16021790555060a08201518160040160006101000a81548173ffffffffffffffffffffffffffffffffffffffff021916908373ffffffffffffffffffffffffffffffffffffffff160217905550905050505050565b6060600080606060008060026000888152602001908152602001600020600001805461037e90610ca7565b80601f01602080910402602001604051908101604052809291908181526020018280546103aa90610ca7565b80156103f75780601f106103cc576101008083540402835291602001916103f7565b820191906000526020600020905b8154815290600101906020018083116103da57829003601f168201915b5050505050955060026000888152602001908152602001600020600101549450600260008881526020019081526020016000206002015493506002600088815260200190815260200160002060030160019054906101000a900473ffffffffffffffffffffffffffffffffffffffff1691506002600088815260200190815260200160002060040160009054906101000a900473ffffffffffffffffffffffffffffffffffffffff16905060006002600089815260200190815260200160002060030160009054906101000a900460ff1660028111156104da576104d9610c1a565b5b90506000810361051d576040518060400160405280600881526020017f466f722053616c6500000000000000000000000000000000000000000000000081525093505b6001810361055e576040518060400160405280600481526020017f536f6c640000000000000000000000000000000000000000000000000000000081525093505b6002810361059f576040518060400160405280600781526020017f536869707065640000000000000000000000000000000000000000000000000081525093505b5091939550919395565b80600060028111156105be576105bd610c1a565b5b6002600083815260200190815260200160002060030160009054906101000a900460ff1660028111156105f4576105f3610c1a565b5b146105fe57600080fd5b60026000838152602001908152602001600020600201548034101561062257600080fd5b6000339050600060026000868152602001908152602001600020600201549050600081346106509190610f56565b905060016002600088815260200190815260200160002060030160006101000a81548160ff0219169083600281111561068c5761068b610c1a565b5b0217905550826002600088815260200190815260200160002060030160016101000a81548173ffffffffffffffffffffffffffffffffffffffff021916908373ffffffffffffffffffffffffffffffffffffffff1602179055506002600087815260200190815260200160002060040160009054906101000a900473ffffffffffffffffffffffffffffffffffffffff1673ffffffffffffffffffffffffffffffffffffffff166108fc839081150290604051600060405180830381858888f19350505050158015610762573d6000803e3d6000fd5b5060008111156107b4578273ffffffffffffffffffffffffffffffffffffffff166108fc829081150290604051600060405180830381858888f193505050501580156107b2573d6000803e3d6000fd5b505b7f92f64ca637d023f354075a4be751b169c1a8a9ccb6d33cdd0cb3520543995727866040516107e39190610bff565b60405180910390a1505050505050565b806001600281111561080857610807610c1a565b5b6002600083815260200190815260200160002060030160009054906101000a900460ff16600281111561083e5761083d610c1a565b5b1461084857600080fd5b600160009054906101000a900473ffffffffffffffffffffffffffffffffffffffff1673ffffffffffffffffffffffffffffffffffffffff163373ffffffffffffffffffffffffffffffffffffffff16146108a257600080fd5b600280600084815260200190815260200160002060030160006101000a81548160ff021916908360028111156108db576108da610c1a565b5b02179055507ff00b9a5725b80c54016f42114f6ed7792d22eecb116011c4afac29c57bef6c958260405161090f9190610bff565b60405180910390a15050565b600080fd5b600080fd5b600080fd5b600080fd5b600080fd5b60008083601f84011261094a57610949610925565b5b8235905067ffffffffffffffff8111156109675761096661092a565b5b6020830191508360018202830111156109835761098261092f565b5b9250929050565b6000819050919050565b61099d8161098a565b81146109a857600080fd5b50565b6000813590506109ba81610994565b92915050565b6000806000604084860312156109d9576109d861091b565b5b600084013567ffffffffffffffff8111156109f7576109f6610920565b5b610a0386828701610934565b93509350506020610a16868287016109ab565b9150509250925092565b600060208284031215610a3657610a3561091b565b5b6000610a44848285016109ab565b91505092915050565b600081519050919050565b600082825260208201905092915050565b60005b83811015610a87578082015181840152602081019050610a6c565b60008484015250505050565b6000601f19601f8301169050919050565b6000610aaf82610a4d565b610ab98185610a58565b9350610ac9818560208601610a69565b610ad281610a93565b840191505092915050565b610ae68161098a565b82525050565b600073ffffffffffffffffffffffffffffffffffffffff82169050919050565b6000610b1782610aec565b9050919050565b610b2781610b0c565b82525050565b600060c0820190508181036000830152610b478189610aa4565b9050610b566020830188610add565b610b636040830187610add565b8181036060830152610b758186610aa4565b9050610b846080830185610b1e565b610b9160a0830184610b1e565b979650505050505050565b7f4e487b7100000000000000000000000000000000000000000000000000000000600052601160045260246000fd5b6000610bd68261098a565b9150610be18361098a565b9250828201905080821115610bf957610bf8610b9c565b5b92915050565b6000602082019050610c146000830184610add565b92915050565b7f4e487b7100000000000000000000000000000000000000000000000000000000600052602160045260246000fd5b7f4e487b7100000000000000000000000000000000000000000000000000000000600052604160045260246000fd5b7f4e487b7100000000000000000000000000000000000000000000000000000000600052602260045260246000fd5b60006002820490506001821680610cbf57607f821691505b602082108103610cd257610cd1610c78565b5b50919050565b60008190508160005260206000209050919050565b60006020601f8301049050919050565b600082821b905092915050565b600060088302610d3a7fffffffffffffffffffffffffffffffffffffffffffffffffffffffffffffffff82610cfd565b610d448683610cfd565b95508019841693508086168417925050509392505050565b6000819050919050565b6000610d81610d7c610d778461098a565b610d5c565b61098a565b9050919050565b6000819050919050565b610d9b83610d66565b610daf610da782610d88565b848454610d0a565b825550505050565b600090565b610dc4610db7565b610dcf818484610d92565b505050565b5b81811015610df357610de8600082610dbc565b600181019050610dd5565b5050565b601f821115610e3857610e0981610cd8565b610e1284610ced565b81016020851015610e21578190505b610e35610e2d85610ced565b830182610dd4565b50505b505050565b600082821c905092915050565b6000610e5b60001984600802610e3d565b1980831691505092915050565b6000610e748383610e4a565b9150826002028217905092915050565b610e8d82610a4d565b67ffffffffffffffff811115610ea657610ea5610c49565b5b610eb08254610ca7565b610ebb828285610df7565b600060209050601f831160018114610eee5760008415610edc578287015190505b610ee68582610e68565b865550610f4e565b601f198416610efc86610cd8565b60005b82811015610f2457848901518255600182019150602085019450602081019050610eff565b86831015610f415784890151610f3d601f891682610e4a565b8355505b6001600288020188555050505b505050505050565b6000610f618261098a565b9150610f6c8361098a565b9250828203905081811115610f8457610f83610b9c565b5b9291505056fea26469706673582212202f8a7a79ef36c898e057827372712dbfcf5baf63ced760e171b77a9df15e0ade64736f6c63430008110033",
  "immutableReferences": {},
  "source": "pragma solidity >=0.7.0 <0.9.0;\n\ncontract LemonadeStand {\n    uint skuCount;\n    address owner;\n\n    enum State {\n        ForSale,\n        Sold,\n        Shipped\n    }\n\n    struct Item {\n        string name;\n        uint sku;\n        uint price;\n        State state;\n        address buyer;\n        address seller;\n    }\n\n    mapping(uint => Item) items;\n\n    event ForSale(uint skuCount);\n    event Sold(uint sku);\n    event Shipped(uint sku);\n\n    modifier onlyOwner() {\n        require(msg.sender == owner);\n        _;\n    }\n\n    modifier verifyCaller(address _address) {\n        require(msg.sender == _address);\n        _;\n    }\n\n    modifier paidEnough(uint price) {\n        require(msg.value >= price);\n        _;\n    }\n\n    modifier isForSale(uint _sku) {\n        require(items[_sku].state == State.ForSale);\n        _;\n    }\n\n    modifier isSold(uint _sku) {\n        require(items[_sku].state == State.Sold);\n        _;\n    }\n\n    constructor() {\n        owner = msg.sender;\n        skuCount = 0;\n    }\n\n    function addItem(string calldata _name, uint _price) public onlyOwner {\n        skuCount = skuCount + 1;\n        emit ForSale(skuCount);\n        items[skuCount] = Item({\n            name: _name,\n            sku: skuCount,\n            price: _price,\n            state: State.ForSale,\n            seller: msg.sender,\n            buyer: address(0)\n        });\n    }\n\n    function buyItem(uint _sku)\n        public\n        payable\n        isForSale(_sku)\n        paidEnough(items[_sku].price)\n    {\n        address buyer = msg.sender;\n        uint price = items[_sku].price;\n        uint refund = msg.value - price;\n        items[_sku].state = State.Sold;\n        items[_sku].buyer = buyer;\n        payable(items[_sku].seller).transfer(price);\n        if (refund > 0) payable(buyer).transfer(refund);\n        emit Sold(_sku);\n    }\n\n    function fetchItem(uint _sku)\n        public\n        view\n        returns (\n            string memory name,\n            uint sku,\n            uint price,\n            string memory state,\n            address buyer,\n            address seller\n        )\n    {\n        name = items[_sku].name;\n        sku = items[_sku].sku;\n        price = items[_sku].price;\n        buyer = items[_sku].buyer;\n        seller = items[_sku].seller;\n        uint stateIndex = uint(items[_sku].state);\n        if (stateIndex == 0) state = \"For Sale\";\n        if (stateIndex == 1) state = \"Sold\";\n        if (stateIndex == 2) state = \"Shipped\";\n    }\n\n    function shipItem(uint _sku) public isSold(_sku) onlyOwner {\n        items[_sku].state = State.Shipped;\n        emit Shipped(_sku);\n    }\n}\n",
  "sourcePath": "/Users/israelandrade/Documents/Udacity/blockchain-nanodegree/blockchain-repo/truffle/contracts/Lemonade.sol",
  "compiler": {
    "name": "solc",
    "version": "0.8.17+commit.8df45f5f.Emscripten.clang"
  },
  "schemaVersion": "3.4.9",
  "updatedAt": "2022-10-29T01:05:51.707Z",
  "devdoc": {
    "kind": "dev",
    "methods": {},
    "version": 1
  },
  "userdoc": {
    "kind": "user",
    "methods": {},
    "version": 1
  }
}