{
  "contractName": "MultiSignature",
  "abi": [
    {
      "inputs": [],
      "stateMutability": "nonpayable",
      "type": "constructor"
    },
    {
      "inputs": [],
      "name": "operational",
      "outputs": [
        {
          "internalType": "bool",
          "name": "",
          "type": "bool"
        }
      ],
      "stateMutability": "view",
      "type": "function"
    },
    {
      "inputs": [
        {
          "internalType": "address",
          "name": "account",
          "type": "address"
        }
      ],
      "name": "isUserRegistered",
      "outputs": [
        {
          "internalType": "bool",
          "name": "",
          "type": "bool"
        }
      ],
      "stateMutability": "view",
      "type": "function"
    },
    {
      "inputs": [
        {
          "internalType": "address",
          "name": "account",
          "type": "address"
        },
        {
          "internalType": "bool",
          "name": "isAdmin",
          "type": "bool"
        }
      ],
      "name": "registerUser",
      "outputs": [],
      "stateMutability": "nonpayable",
      "type": "function"
    },
    {
      "inputs": [
        {
          "internalType": "bool",
          "name": "isOperational",
          "type": "bool"
        }
      ],
      "name": "setOperational",
      "outputs": [],
      "stateMutability": "nonpayable",
      "type": "function"
    }
  ],
  "bytecode": "0x608060405234801561001057600080fd5b5033600060016101000a81548173ffffffffffffffffffffffffffffffffffffffff021916908373ffffffffffffffffffffffffffffffffffffffff16021790555060016000806101000a81548160ff0219169083151502179055506108598061007b6000396000f3fe608060405234801561001057600080fd5b506004361061004c5760003560e01c80630a40108614610051578063163f75221461006f578063500b94aa1461009f578063951faf00146100bb575b600080fd5b6100596100d7565b60405161006691906104d2565b60405180910390f35b61008960048036038101906100849190610550565b6100e8565b60405161009691906104d2565b60405180910390f35b6100b960048036038101906100b491906105a9565b6101fe565b005b6100d560048036038101906100d091906105d6565b6102aa565b005b60008054906101000a900460ff1681565b60008060009054906101000a900460ff16610138576040517f08c379a000000000000000000000000000000000000000000000000000000000815260040161012f90610699565b60405180910390fd5b600073ffffffffffffffffffffffffffffffffffffffff168273ffffffffffffffffffffffffffffffffffffffff16036101a7576040517f08c379a000000000000000000000000000000000000000000000000000000000815260040161019e9061072b565b60405180910390fd5b600160008373ffffffffffffffffffffffffffffffffffffffff1673ffffffffffffffffffffffffffffffffffffffff16815260200190815260200160002060000160009054906101000a900460ff169050919050565b600060019054906101000a900473ffffffffffffffffffffffffffffffffffffffff1673ffffffffffffffffffffffffffffffffffffffff163373ffffffffffffffffffffffffffffffffffffffff161461028e576040517f08c379a000000000000000000000000000000000000000000000000000000000815260040161028590610797565b60405180910390fd5b806000806101000a81548160ff02191690831515021790555050565b600060019054906101000a900473ffffffffffffffffffffffffffffffffffffffff1673ffffffffffffffffffffffffffffffffffffffff163373ffffffffffffffffffffffffffffffffffffffff161461033a576040517f08c379a000000000000000000000000000000000000000000000000000000000815260040161033190610797565b60405180910390fd5b60008054906101000a900460ff16610387576040517f08c379a000000000000000000000000000000000000000000000000000000000815260040161037e90610699565b60405180910390fd5b600160008373ffffffffffffffffffffffffffffffffffffffff1673ffffffffffffffffffffffffffffffffffffffff16815260200190815260200160002060000160009054906101000a900460ff1615610417576040517f08c379a000000000000000000000000000000000000000000000000000000000815260040161040e90610803565b60405180910390fd5b6040518060400160405280600115158152602001821515815250600160008473ffffffffffffffffffffffffffffffffffffffff1673ffffffffffffffffffffffffffffffffffffffff16815260200190815260200160002060008201518160000160006101000a81548160ff02191690831515021790555060208201518160000160016101000a81548160ff0219169083151502179055509050505050565b60008115159050919050565b6104cc816104b7565b82525050565b60006020820190506104e760008301846104c3565b92915050565b600080fd5b600073ffffffffffffffffffffffffffffffffffffffff82169050919050565b600061051d826104f2565b9050919050565b61052d81610512565b811461053857600080fd5b50565b60008135905061054a81610524565b92915050565b600060208284031215610566576105656104ed565b5b60006105748482850161053b565b91505092915050565b610586816104b7565b811461059157600080fd5b50565b6000813590506105a38161057d565b92915050565b6000602082840312156105bf576105be6104ed565b5b60006105cd84828501610594565b91505092915050565b600080604083850312156105ed576105ec6104ed565b5b60006105fb8582860161053b565b925050602061060c85828601610594565b9150509250929050565b600082825260208201905092915050565b7f54686520736d61727420636f6e7472616374206973206e6f74206f706572617460008201527f696f6e616c20617420746865206d6f6d656e7400000000000000000000000000602082015250565b6000610683603383610616565b915061068e82610627565b604082019050919050565b600060208201905081810360008301526106b281610676565b9050919050565b7f276163636f756e7427206d75737420626520612076616c69642061646472657360008201527f732e000000000000000000000000000000000000000000000000000000000000602082015250565b6000610715602283610616565b9150610720826106b9565b604082019050919050565b6000602082019050818103600083015261074481610708565b9050919050565b7f43616c6c6572206973206e6f7420636f6e7472616374206f776e657200000000600082015250565b6000610781601c83610616565b915061078c8261074b565b602082019050919050565b600060208201905081810360008301526107b081610774565b9050919050565b7f5573657220697320616c726561647920726567697374657265642e0000000000600082015250565b60006107ed601b83610616565b91506107f8826107b7565b602082019050919050565b6000602082019050818103600083015261081c816107e0565b905091905056fea264697066735822122058f84aa62047ace74dfe43761520812fd4e2260ed847fa36087cfee0bc1f631864736f6c63430008110033",
  "immutableReferences": {},
  "source": "pragma solidity ^0.8.17;\n\ncontract MultiSignature {\n\n    struct UserProfile {\n        bool isRegistered;\n        bool isAdmin;\n    }\n\n    bool public operational;\n\n    address private contractOwner; // Account used to deploy contract\n    mapping(address => UserProfile) userProfiles; // Mapping for storing user profiles\n\n    constructor() {\n        contractOwner = msg.sender;\n        operational = true;\n    }\n\n\n    modifier requireContractOwner() {\n        require(msg.sender == contractOwner, \"Caller is not contract owner\");\n        _;\n    }\n\n    modifier requireIsOperational() {\n        require(operational, \"The smart contract is not operational at the moment\");\n        _;\n    }\n\n    function isUserRegistered(address account) external view requireIsOperational returns  (bool) {\n        require(account != address(0), \"'account' must be a valid address.\");\n        return userProfiles[account].isRegistered;\n    }\n\n    function registerUser(address account, bool isAdmin)\n        external\n        requireContractOwner\n        requireIsOperational\n    {\n        require(\n            !userProfiles[account].isRegistered,\n            \"User is already registered.\"\n        );\n\n        userProfiles[account] = UserProfile({\n            isRegistered: true,\n            isAdmin: isAdmin\n        });\n    }\n\n    function setOperational(bool isOperational) external requireContractOwner {\n        operational = isOperational;\n    }\n}\n",
  "sourcePath": "/Users/israelandrade/Documents/Udacity/blockchain-nanodegree/blockchain-repo/truffle/contracts/MultiSignature.sol",
  "compiler": {
    "name": "solc",
    "version": "0.8.17+commit.8df45f5f.Emscripten.clang"
  },
  "schemaVersion": "3.4.9",
  "updatedAt": "2022-10-29T01:07:13.773Z",
  "devdoc": {
    "kind": "dev",
    "methods": {},
    "version": 1
  },
  "userdoc": {
    "kind": "user",
    "methods": {},
    "version": 1
  }
}